{
  "contractName": "IdentityManager",
  "abi": [
    {
      "inputs": [],
      "name": "IdentityManagement",
      "outputs": [],
      "stateMutability": "nonpayable",
      "type": "function"
    },
    {
      "inputs": [
        {
          "internalType": "address",
          "name": "UserAddress",
          "type": "address"
        },
        {
          "internalType": "string",
          "name": "Email",
          "type": "string"
        },
        {
          "internalType": "string",
          "name": "Password",
          "type": "string"
        },
        {
          "internalType": "string",
          "name": "FullName",
          "type": "string"
        },
        {
          "internalType": "uint256",
          "name": "MobileNo",
          "type": "uint256"
        },
        {
          "internalType": "string",
          "name": "User_DOB",
          "type": "string"
        },
        {
          "internalType": "string",
          "name": "User_Address",
          "type": "string"
        }
      ],
      "name": "AddUser",
      "outputs": [],
      "stateMutability": "nonpayable",
      "type": "function"
    },
    {
      "inputs": [
        {
          "internalType": "address",
          "name": "userAddress",
          "type": "address"
        },
        {
          "internalType": "uint256",
          "name": "id",
          "type": "uint256"
        }
      ],
      "name": "viewUser",
      "outputs": [
        {
          "internalType": "string",
          "name": "FullName",
          "type": "string"
        },
        {
          "internalType": "uint256",
          "name": "MobileNo",
          "type": "uint256"
        },
        {
          "internalType": "string",
          "name": "User_DOB",
          "type": "string"
        },
        {
          "internalType": "string",
          "name": "User_Address",
          "type": "string"
        }
      ],
      "stateMutability": "view",
      "type": "function",
      "constant": true
    },
    {
      "inputs": [
        {
          "internalType": "string",
          "name": "Email",
          "type": "string"
        }
      ],
      "name": "viewUserEmail",
      "outputs": [
        {
          "internalType": "string",
          "name": "FullName",
          "type": "string"
        },
        {
          "internalType": "uint256",
          "name": "MobileNo",
          "type": "uint256"
        },
        {
          "internalType": "string",
          "name": "User_DOB",
          "type": "string"
        },
        {
          "internalType": "string",
          "name": "User_Address",
          "type": "string"
        }
      ],
      "stateMutability": "view",
      "type": "function",
      "constant": true
    },
    {
      "inputs": [],
      "name": "viewAllUsers",
      "outputs": [
        {
          "components": [
            {
              "internalType": "uint256",
              "name": "id",
              "type": "uint256"
            },
            {
              "internalType": "string",
              "name": "Email",
              "type": "string"
            },
            {
              "internalType": "string",
              "name": "Password",
              "type": "string"
            },
            {
              "internalType": "string",
              "name": "FullName",
              "type": "string"
            },
            {
              "internalType": "uint256",
              "name": "MobileNo",
              "type": "uint256"
            },
            {
              "internalType": "string",
              "name": "User_DOB",
              "type": "string"
            },
            {
              "internalType": "string",
              "name": "User_Address",
              "type": "string"
            }
          ],
          "internalType": "struct IdentityManager.UserInfo[]",
          "name": "users",
          "type": "tuple[]"
        }
      ],
      "stateMutability": "view",
      "type": "function",
      "constant": true
    },
    {
      "inputs": [
        {
          "components": [
            {
              "internalType": "address",
              "name": "userAddress",
              "type": "address"
            },
            {
              "internalType": "uint256",
              "name": "id",
              "type": "uint256"
            }
          ],
          "internalType": "struct IdentityManager.UserIdentity",
          "name": "userID",
          "type": "tuple"
        }
      ],
      "name": "viewGroupsForUser",
      "outputs": [
        {
          "components": [
            {
              "internalType": "address",
              "name": "groupAddress",
              "type": "address"
            },
            {
              "internalType": "uint256",
              "name": "id",
              "type": "uint256"
            }
          ],
          "internalType": "struct IdentityManager.GroupIdentity[]",
          "name": "groupForUser",
          "type": "tuple[]"
        }
      ],
      "stateMutability": "view",
      "type": "function",
      "constant": true
    },
    {
      "inputs": [
        {
          "internalType": "string",
          "name": "Email",
          "type": "string"
        }
      ],
      "name": "viewGroupsForUserEmail",
      "outputs": [
        {
          "components": [
            {
              "internalType": "address",
              "name": "groupAddress",
              "type": "address"
            },
            {
              "internalType": "uint256",
              "name": "id",
              "type": "uint256"
            }
          ],
          "internalType": "struct IdentityManager.GroupIdentity[]",
          "name": "groupForUser",
          "type": "tuple[]"
        }
      ],
      "stateMutability": "view",
      "type": "function",
      "constant": true
    },
    {
      "inputs": [
        {
          "internalType": "string",
          "name": "Email",
          "type": "string"
        },
        {
          "internalType": "string",
          "name": "password",
          "type": "string"
        }
      ],
      "name": "login",
      "outputs": [
        {
          "internalType": "bool",
          "name": "result",
          "type": "bool"
        }
      ],
      "stateMutability": "view",
      "type": "function",
      "constant": true
    },
    {
      "inputs": [
        {
          "internalType": "string",
          "name": "Email",
          "type": "string"
        }
      ],
      "name": "getUserIdByEmail",
      "outputs": [
        {
          "components": [
            {
              "internalType": "address",
              "name": "userAddress",
              "type": "address"
            },
            {
              "internalType": "uint256",
              "name": "id",
              "type": "uint256"
            }
          ],
          "internalType": "struct IdentityManager.UserIdentity",
          "name": "userId",
          "type": "tuple"
        }
      ],
      "stateMutability": "view",
      "type": "function",
      "constant": true
    },
    {
      "inputs": [
        {
          "internalType": "address",
          "name": "UserAddress",
          "type": "address"
        },
        {
          "internalType": "uint256",
          "name": "Owner_ID",
          "type": "uint256"
        },
        {
          "internalType": "string",
          "name": "Group_Name",
          "type": "string"
        }
      ],
      "name": "AddGroup",
      "outputs": [],
      "stateMutability": "nonpayable",
      "type": "function"
    },
    {
      "inputs": [
        {
          "internalType": "string",
          "name": "newUserEmail",
          "type": "string"
        },
        {
          "components": [
            {
              "internalType": "address",
              "name": "groupAddress",
              "type": "address"
            },
            {
              "internalType": "uint256",
              "name": "id",
              "type": "uint256"
            }
          ],
          "internalType": "struct IdentityManager.GroupIdentity",
          "name": "groupId",
          "type": "tuple"
        }
      ],
      "name": "AddUserToGroup",
      "outputs": [
        {
          "internalType": "bool",
          "name": "succeeded",
          "type": "bool"
        }
      ],
      "stateMutability": "nonpayable",
      "type": "function"
    },
    {
      "inputs": [
        {
          "components": [
            {
              "internalType": "address",
              "name": "groupAddress",
              "type": "address"
            },
            {
              "internalType": "uint256",
              "name": "id",
              "type": "uint256"
            }
          ],
          "internalType": "struct IdentityManager.GroupIdentity",
          "name": "groupID",
          "type": "tuple"
        }
      ],
      "name": "viewGroup",
      "outputs": [
        {
          "components": [
            {
              "internalType": "uint256",
              "name": "GroupID",
              "type": "uint256"
            },
            {
              "internalType": "address",
              "name": "OwnerAddress",
              "type": "address"
            },
            {
              "internalType": "uint256",
              "name": "OwnerId",
              "type": "uint256"
            },
            {
              "internalType": "string",
              "name": "GroupName",
              "type": "string"
            }
          ],
          "internalType": "struct IdentityManager.Group",
          "name": "group",
          "type": "tuple"
        }
      ],
      "stateMutability": "view",
      "type": "function",
      "constant": true
    },
    {
      "inputs": [
        {
          "internalType": "string",
          "name": "name",
          "type": "string"
        }
      ],
      "name": "getGroupId",
      "outputs": [
        {
          "components": [
            {
              "internalType": "address",
              "name": "groupAddress",
              "type": "address"
            },
            {
              "internalType": "uint256",
              "name": "id",
              "type": "uint256"
            }
          ],
          "internalType": "struct IdentityManager.GroupIdentity",
          "name": "group",
          "type": "tuple"
        }
      ],
      "stateMutability": "view",
      "type": "function",
      "constant": true
    },
    {
      "inputs": [],
      "name": "viewAllGroups",
      "outputs": [
        {
          "components": [
            {
              "internalType": "uint256",
              "name": "GroupID",
              "type": "uint256"
            },
            {
              "internalType": "address",
              "name": "OwnerAddress",
              "type": "address"
            },
            {
              "internalType": "uint256",
              "name": "OwnerId",
              "type": "uint256"
            },
            {
              "internalType": "string",
              "name": "GroupName",
              "type": "string"
            }
          ],
          "internalType": "struct IdentityManager.Group[]",
          "name": "allgGroups",
          "type": "tuple[]"
        }
      ],
      "stateMutability": "view",
      "type": "function",
      "constant": true
    },
    {
      "inputs": [
        {
          "components": [
            {
              "internalType": "address",
              "name": "groupAddress",
              "type": "address"
            },
            {
              "internalType": "uint256",
              "name": "id",
              "type": "uint256"
            }
          ],
          "internalType": "struct IdentityManager.GroupIdentity",
          "name": "groupID",
          "type": "tuple"
        }
      ],
      "name": "viewUsersForGroup",
      "outputs": [
        {
          "components": [
            {
              "internalType": "address",
              "name": "userAddress",
              "type": "address"
            },
            {
              "internalType": "uint256",
              "name": "id",
              "type": "uint256"
            }
          ],
          "internalType": "struct IdentityManager.UserIdentity[]",
          "name": "usersForGroup",
          "type": "tuple[]"
        }
      ],
      "stateMutability": "view",
      "type": "function",
      "constant": true
    }
  ],
  "bytecode": "0x608060405234801561001057600080fd5b506130b1806100206000396000f3fe608060405234801561001057600080fd5b50600436106100f55760003560e01c806358467dbc11610097578063a1621bba11610066578063a1621bba146102d3578063af3f3290146102dd578063c3fa505c14610310578063ec046fc714610340576100f5565b806358467dbc146102365780637abecf4a14610266578063890f31c314610282578063a092b718146102b5576100f5565b806325a87f63116100d357806325a87f63146101765780632859c486146101a657806337fcba25146101d65780635212700014610206576100f5565b80630151c114146100fa578063177ca99c1461012a57806325717e8914610146575b600080fd5b610114600480360381019061010f9190612283565b61035e565b60405161012191906123ac565b60405180910390f35b610144600480360381019061013f9190612488565b61047b565b005b610160600480360381019061015b9190612547565b610993565b60405161016d9190612652565b60405180910390f35b610190600480360381019061018b9190612674565b610ab0565b60405161019d91906123ac565b60405180910390f35b6101c060048036038101906101bb9190612547565b610b4a565b6040516101cd91906127a8565b60405180910390f35b6101f060048036038101906101eb91906127ca565b610cc7565b6040516101fd9190612841565b60405180910390f35b610220600480360381019061021b9190612674565b610f8a565b60405161022d919061288b565b60405180910390f35b610250600480360381019061024b91906128a6565b611022565b60405161025d9190612841565b60405180910390f35b610280600480360381019061027b919061291e565b611152565b005b61029c60048036038101906102979190612674565b61159f565b6040516102ac9493929190612aa5565b60405180910390f35b6102bd611621565b6040516102ca9190612c24565b60405180910390f35b6102db61177c565b005b6102f760048036038101906102f29190612c46565b6117be565b6040516103079493929190612aa5565b60405180910390f35b61032a60048036038101906103259190612674565b611b47565b6040516103379190612cb5565b60405180910390f35b610348611bdf565b6040516103559190612e4a565b60405180910390f35b6060600060036000846000015173ffffffffffffffffffffffffffffffffffffffff1673ffffffffffffffffffffffffffffffffffffffff168152602001908152602001600020600084602001518152602001908152602001600020805480602002602001604051908101604052809291908181526020016000905b8282101561046c57838290600052602060002090600202016040518060400160405290816000820160009054906101000a900473ffffffffffffffffffffffffffffffffffffffff1673ffffffffffffffffffffffffffffffffffffffff1673ffffffffffffffffffffffffffffffffffffffff168152602001600182015481525050815260200190600101906103da565b50505050905080915050919050565b6000600260008573ffffffffffffffffffffffffffffffffffffffff1673ffffffffffffffffffffffffffffffffffffffff168152602001908152602001600020805490509050600260008573ffffffffffffffffffffffffffffffffffffffff1673ffffffffffffffffffffffffffffffffffffffff16815260200190815260200160002060405180608001604052808381526020018673ffffffffffffffffffffffffffffffffffffffff1681526020018581526020018481525090806001815401808255809150506001900390600052602060002090600402016000909190919091506000820151816000015560208201518160010160006101000a81548173ffffffffffffffffffffffffffffffffffffffff021916908373ffffffffffffffffffffffffffffffffffffffff1602179055506040820151816002015560608201518160030190805190602001906105d8929190611f2c565b505050600460008573ffffffffffffffffffffffffffffffffffffffff1673ffffffffffffffffffffffffffffffffffffffff168152602001908152602001600020600082815260200190815260200160002060405180604001604052808673ffffffffffffffffffffffffffffffffffffffff16815260200185815250908060018154018082558091505060019003906000526020600020906002020160009091909190915060008201518160000160006101000a81548173ffffffffffffffffffffffffffffffffffffffff021916908373ffffffffffffffffffffffffffffffffffffffff160217905550602082015181600101555050600360008573ffffffffffffffffffffffffffffffffffffffff1673ffffffffffffffffffffffffffffffffffffffff168152602001908152602001600020600084815260200190815260200160002060405180604001604052808673ffffffffffffffffffffffffffffffffffffffff16815260200183815250908060018154018082558091505060019003906000526020600020906002020160009091909190915060008201518160000160006101000a81548173ffffffffffffffffffffffffffffffffffffffff021916908373ffffffffffffffffffffffffffffffffffffffff1602179055506020820151816001015550506009600260008673ffffffffffffffffffffffffffffffffffffffff1673ffffffffffffffffffffffffffffffffffffffff168152602001908152602001600020828154811061081c5761081b612e6c565b5b90600052602060002090600402019080600181540180825580915050600190039060005260206000209060040201600090919091909150600082015481600001556001820160009054906101000a900473ffffffffffffffffffffffffffffffffffffffff168160010160006101000a81548173ffffffffffffffffffffffffffffffffffffffff021916908373ffffffffffffffffffffffffffffffffffffffff1602179055506002820154816002015560038201816003019080546108e290612eca565b6108ed929190611fb2565b50505060405180604001604052808573ffffffffffffffffffffffffffffffffffffffff1681526020018281525060068360405161092b9190612f37565b908152602001604051809103902060008201518160000160006101000a81548173ffffffffffffffffffffffffffffffffffffffff021916908373ffffffffffffffffffffffffffffffffffffffff1602179055506020820151816001015590505050505050565b6060600060046000846000015173ffffffffffffffffffffffffffffffffffffffff1673ffffffffffffffffffffffffffffffffffffffff168152602001908152602001600020600084602001518152602001908152602001600020805480602002602001604051908101604052809291908181526020016000905b82821015610aa157838290600052602060002090600202016040518060400160405290816000820160009054906101000a900473ffffffffffffffffffffffffffffffffffffffff1673ffffffffffffffffffffffffffffffffffffffff1673ffffffffffffffffffffffffffffffffffffffff16815260200160018201548152505081526020019060010190610a0f565b50505050905080915050919050565b6060610b43600583604051610ac59190612f37565b90815260200160405180910390206040518060400160405290816000820160009054906101000a900473ffffffffffffffffffffffffffffffffffffffff1673ffffffffffffffffffffffffffffffffffffffff1673ffffffffffffffffffffffffffffffffffffffff16815260200160018201548152505061035e565b9050919050565b610b5261203f565b60026000836000015173ffffffffffffffffffffffffffffffffffffffff1673ffffffffffffffffffffffffffffffffffffffff168152602001908152602001600020826020015181548110610bab57610baa612e6c565b5b9060005260206000209060040201604051806080016040529081600082015481526020016001820160009054906101000a900473ffffffffffffffffffffffffffffffffffffffff1673ffffffffffffffffffffffffffffffffffffffff1673ffffffffffffffffffffffffffffffffffffffff16815260200160028201548152602001600382018054610c3e90612eca565b80601f0160208091040260200160405190810160405280929190818152602001828054610c6a90612eca565b8015610cb75780601f10610c8c57610100808354040283529160200191610cb7565b820191906000526020600020905b815481529060010190602001808311610c9a57829003601f168201915b5050505050815250509050919050565b600080600584604051610cda9190612f37565b90815260200160405180910390206040518060400160405290816000820160009054906101000a900473ffffffffffffffffffffffffffffffffffffffff1673ffffffffffffffffffffffffffffffffffffffff1673ffffffffffffffffffffffffffffffffffffffff16815260200160018201548152505090503373ffffffffffffffffffffffffffffffffffffffff16836000015173ffffffffffffffffffffffffffffffffffffffff1614158015610dc557503273ffffffffffffffffffffffffffffffffffffffff16836000015173ffffffffffffffffffffffffffffffffffffffff1614155b15610dd4576000915050610f84565b60046000846000015173ffffffffffffffffffffffffffffffffffffffff1673ffffffffffffffffffffffffffffffffffffffff16815260200190815260200160002060008460200151815260200190815260200160002081908060018154018082558091505060019003906000526020600020906002020160009091909190915060008201518160000160006101000a81548173ffffffffffffffffffffffffffffffffffffffff021916908373ffffffffffffffffffffffffffffffffffffffff16021790555060208201518160010155505060036000826000015173ffffffffffffffffffffffffffffffffffffffff1673ffffffffffffffffffffffffffffffffffffffff16815260200190815260200160002060008260200151815260200190815260200160002083908060018154018082558091505060019003906000526020600020906002020160009091909190915060008201518160000160006101000a81548173ffffffffffffffffffffffffffffffffffffffff021916908373ffffffffffffffffffffffffffffffffffffffff16021790555060208201518160010155505060019150505b92915050565b610f9261207d565b600682604051610fa29190612f37565b90815260200160405180910390206040518060400160405290816000820160009054906101000a900473ffffffffffffffffffffffffffffffffffffffff1673ffffffffffffffffffffffffffffffffffffffff1673ffffffffffffffffffffffffffffffffffffffff1681526020016001820154815250509050919050565b6000806005846040516110359190612f37565b90815260200160405180910390206040518060400160405290816000820160009054906101000a900473ffffffffffffffffffffffffffffffffffffffff1673ffffffffffffffffffffffffffffffffffffffff1673ffffffffffffffffffffffffffffffffffffffff1681526020016001820154815250509050828051906020012060016000836000015173ffffffffffffffffffffffffffffffffffffffff1673ffffffffffffffffffffffffffffffffffffffff16815260200190815260200160002082602001518154811061111157611110612e6c565b5b906000526020600020906007020160020160405161112f9190612fed565b60405180910390200361114657600191505061114c565b60009150505b92915050565b6000600160008973ffffffffffffffffffffffffffffffffffffffff1673ffffffffffffffffffffffffffffffffffffffff168152602001908152602001600020805490509050600160008973ffffffffffffffffffffffffffffffffffffffff1673ffffffffffffffffffffffffffffffffffffffff1681526020019081526020016000206040518060e0016040528083815260200189815260200188815260200187815260200186815260200185815260200184815250908060018154018082558091505060019003906000526020600020906007020160009091909190915060008201518160000155602082015181600101908051906020019061125a929190611f2c565b506040820151816002019080519060200190611277929190611f2c565b506060820151816003019080519060200190611294929190611f2c565b506080820151816004015560a08201518160050190805190602001906112bb929190611f2c565b5060c08201518160060190805190602001906112d8929190611f2c565b50505060086040518060e0016040528083815260200189815260200160405180602001604052806000815250815260200187815260200186815260200185815260200184815250908060018154018082558091505060019003906000526020600020906007020160009091909190915060008201518160000155602082015181600101908051906020019061136e929190611f2c565b50604082015181600201908051906020019061138b929190611f2c565b5060608201518160030190805190602001906113a8929190611f2c565b506080820151816004015560a08201518160050190805190602001906113cf929190611f2c565b5060c08201518160060190805190602001906113ec929190611f2c565b50505060405180604001604052808973ffffffffffffffffffffffffffffffffffffffff1681526020018281525060058860405161142a9190612f37565b908152602001604051809103902060008201518160000160006101000a81548173ffffffffffffffffffffffffffffffffffffffff021916908373ffffffffffffffffffffffffffffffffffffffff160217905550602082015181600101559050506000805b60078054905081101561152a578973ffffffffffffffffffffffffffffffffffffffff16600782815481106114c8576114c7612e6c565b5b9060005260206000200160009054906101000a900473ffffffffffffffffffffffffffffffffffffffff1673ffffffffffffffffffffffffffffffffffffffff1603611517576001915061152a565b808061152290613033565b915050611490565b5080611594576007899080600181540180825580915050600190039060005260206000200160009091909190916101000a81548173ffffffffffffffffffffffffffffffffffffffff021916908373ffffffffffffffffffffffffffffffffffffffff1602179055505b505050505050505050565b606060006060806116126005866040516115b99190612f37565b908152602001604051809103902060000160009054906101000a900473ffffffffffffffffffffffffffffffffffffffff166005876040516115fb9190612f37565b9081526020016040518091039020600101546117be565b93509350935093509193509193565b60606009805480602002602001604051908101604052809291908181526020016000905b828210156117735783829060005260206000209060040201604051806080016040529081600082015481526020016001820160009054906101000a900473ffffffffffffffffffffffffffffffffffffffff1673ffffffffffffffffffffffffffffffffffffffff1673ffffffffffffffffffffffffffffffffffffffff168152602001600282015481526020016003820180546116e290612eca565b80601f016020809104026020016040519081016040528092919081815260200182805461170e90612eca565b801561175b5780601f106117305761010080835404028352916020019161175b565b820191906000526020600020905b81548152906001019060200180831161173e57829003601f168201915b50505050508152505081526020019060010190611645565b50505050905090565b336000806101000a81548173ffffffffffffffffffffffffffffffffffffffff021916908373ffffffffffffffffffffffffffffffffffffffff160217905550565b606060006060806000600160008873ffffffffffffffffffffffffffffffffffffffff1673ffffffffffffffffffffffffffffffffffffffff168152602001908152602001600020868154811061181857611817612e6c565b5b90600052602060002090600702016040518060e00160405290816000820154815260200160018201805461184b90612eca565b80601f016020809104026020016040519081016040528092919081815260200182805461187790612eca565b80156118c45780601f10611899576101008083540402835291602001916118c4565b820191906000526020600020905b8154815290600101906020018083116118a757829003601f168201915b505050505081526020016002820180546118dd90612eca565b80601f016020809104026020016040519081016040528092919081815260200182805461190990612eca565b80156119565780601f1061192b57610100808354040283529160200191611956565b820191906000526020600020905b81548152906001019060200180831161193957829003601f168201915b5050505050815260200160038201805461196f90612eca565b80601f016020809104026020016040519081016040528092919081815260200182805461199b90612eca565b80156119e85780601f106119bd576101008083540402835291602001916119e8565b820191906000526020600020905b8154815290600101906020018083116119cb57829003601f168201915b5050505050815260200160048201548152602001600582018054611a0b90612eca565b80601f0160208091040260200160405190810160405280929190818152602001828054611a3790612eca565b8015611a845780601f10611a5957610100808354040283529160200191611a84565b820191906000526020600020905b815481529060010190602001808311611a6757829003601f168201915b50505050508152602001600682018054611a9d90612eca565b80601f0160208091040260200160405190810160405280929190818152602001828054611ac990612eca565b8015611b165780601f10611aeb57610100808354040283529160200191611b16565b820191906000526020600020905b815481529060010190602001808311611af957829003601f168201915b5050505050815250509050806060015181608001518260a001518360c0015194509450945094505092959194509250565b611b4f6120ad565b600582604051611b5f9190612f37565b90815260200160405180910390206040518060400160405290816000820160009054906101000a900473ffffffffffffffffffffffffffffffffffffffff1673ffffffffffffffffffffffffffffffffffffffff1673ffffffffffffffffffffffffffffffffffffffff1681526020016001820154815250509050919050565b60606008805480602002602001604051908101604052809291908181526020016000905b82821015611f2357838290600052602060002090600702016040518060e001604052908160008201548152602001600182018054611c4090612eca565b80601f0160208091040260200160405190810160405280929190818152602001828054611c6c90612eca565b8015611cb95780601f10611c8e57610100808354040283529160200191611cb9565b820191906000526020600020905b815481529060010190602001808311611c9c57829003601f168201915b50505050508152602001600282018054611cd290612eca565b80601f0160208091040260200160405190810160405280929190818152602001828054611cfe90612eca565b8015611d4b5780601f10611d2057610100808354040283529160200191611d4b565b820191906000526020600020905b815481529060010190602001808311611d2e57829003601f168201915b50505050508152602001600382018054611d6490612eca565b80601f0160208091040260200160405190810160405280929190818152602001828054611d9090612eca565b8015611ddd5780601f10611db257610100808354040283529160200191611ddd565b820191906000526020600020905b815481529060010190602001808311611dc057829003601f168201915b5050505050815260200160048201548152602001600582018054611e0090612eca565b80601f0160208091040260200160405190810160405280929190818152602001828054611e2c90612eca565b8015611e795780601f10611e4e57610100808354040283529160200191611e79565b820191906000526020600020905b815481529060010190602001808311611e5c57829003601f168201915b50505050508152602001600682018054611e9290612eca565b80601f0160208091040260200160405190810160405280929190818152602001828054611ebe90612eca565b8015611f0b5780601f10611ee057610100808354040283529160200191611f0b565b820191906000526020600020905b815481529060010190602001808311611eee57829003601f168201915b50505050508152505081526020019060010190611c03565b50505050905090565b828054611f3890612eca565b90600052602060002090601f016020900481019282611f5a5760008555611fa1565b82601f10611f7357805160ff1916838001178555611fa1565b82800160010185558215611fa1579182015b82811115611fa0578251825591602001919060010190611f85565b5b509050611fae91906120dd565b5090565b828054611fbe90612eca565b90600052602060002090601f016020900481019282611fe0576000855561202e565b82601f10611ff1578054855561202e565b8280016001018555821561202e57600052602060002091601f016020900482015b8281111561202d578254825591600101919060010190612012565b5b50905061203b91906120dd565b5090565b604051806080016040528060008152602001600073ffffffffffffffffffffffffffffffffffffffff16815260200160008152602001606081525090565b6040518060400160405280600073ffffffffffffffffffffffffffffffffffffffff168152602001600081525090565b6040518060400160405280600073ffffffffffffffffffffffffffffffffffffffff168152602001600081525090565b5b808211156120f65760008160009055506001016120de565b5090565b6000604051905090565b600080fd5b600080fd5b600080fd5b6000601f19601f8301169050919050565b7f4e487b7100000000000000000000000000000000000000000000000000000000600052604160045260246000fd5b61215c82612113565b810181811067ffffffffffffffff8211171561217b5761217a612124565b5b80604052505050565b600061218e6120fa565b905061219a8282612153565b919050565b600073ffffffffffffffffffffffffffffffffffffffff82169050919050565b60006121ca8261219f565b9050919050565b6121da816121bf565b81146121e557600080fd5b50565b6000813590506121f7816121d1565b92915050565b6000819050919050565b612210816121fd565b811461221b57600080fd5b50565b60008135905061222d81612207565b92915050565b6000604082840312156122495761224861210e565b5b6122536040612184565b90506000612263848285016121e8565b60008301525060206122778482850161221e565b60208301525092915050565b60006040828403121561229957612298612104565b5b60006122a784828501612233565b91505092915050565b600081519050919050565b600082825260208201905092915050565b6000819050602082019050919050565b6122e5816121bf565b82525050565b6122f4816121fd565b82525050565b60408201600082015161231060008501826122dc565b50602082015161232360208501826122eb565b50505050565b600061233583836122fa565b60408301905092915050565b6000602082019050919050565b6000612359826122b0565b61236381856122bb565b935061236e836122cc565b8060005b8381101561239f5781516123868882612329565b975061239183612341565b925050600181019050612372565b5085935050505092915050565b600060208201905081810360008301526123c6818461234e565b905092915050565b600080fd5b600080fd5b600067ffffffffffffffff8211156123f3576123f2612124565b5b6123fc82612113565b9050602081019050919050565b82818337600083830152505050565b600061242b612426846123d8565b612184565b905082815260208101848484011115612447576124466123d3565b5b612452848285612409565b509392505050565b600082601f83011261246f5761246e6123ce565b5b813561247f848260208601612418565b91505092915050565b6000806000606084860312156124a1576124a0612104565b5b60006124af868287016121e8565b93505060206124c08682870161221e565b925050604084013567ffffffffffffffff8111156124e1576124e0612109565b5b6124ed8682870161245a565b9150509250925092565b60006040828403121561250d5761250c61210e565b5b6125176040612184565b90506000612527848285016121e8565b600083015250602061253b8482850161221e565b60208301525092915050565b60006040828403121561255d5761255c612104565b5b600061256b848285016124f7565b91505092915050565b600081519050919050565b600082825260208201905092915050565b6000819050602082019050919050565b6040820160008201516125b660008501826122dc565b5060208201516125c960208501826122eb565b50505050565b60006125db83836125a0565b60408301905092915050565b6000602082019050919050565b60006125ff82612574565b612609818561257f565b935061261483612590565b8060005b8381101561264557815161262c88826125cf565b9750612637836125e7565b925050600181019050612618565b5085935050505092915050565b6000602082019050818103600083015261266c81846125f4565b905092915050565b60006020828403121561268a57612689612104565b5b600082013567ffffffffffffffff8111156126a8576126a7612109565b5b6126b48482850161245a565b91505092915050565b600081519050919050565b600082825260208201905092915050565b60005b838110156126f75780820151818401526020810190506126dc565b83811115612706576000848401525b50505050565b6000612717826126bd565b61272181856126c8565b93506127318185602086016126d9565b61273a81612113565b840191505092915050565b600060808301600083015161275d60008601826122eb565b50602083015161277060208601826122dc565b50604083015161278360408601826122eb565b506060830151848203606086015261279b828261270c565b9150508091505092915050565b600060208201905081810360008301526127c28184612745565b905092915050565b600080606083850312156127e1576127e0612104565b5b600083013567ffffffffffffffff8111156127ff576127fe612109565b5b61280b8582860161245a565b925050602061281c858286016124f7565b9150509250929050565b60008115159050919050565b61283b81612826565b82525050565b60006020820190506128566000830184612832565b92915050565b60408201600082015161287260008501826122dc565b50602082015161288560208501826122eb565b50505050565b60006040820190506128a0600083018461285c565b92915050565b600080604083850312156128bd576128bc612104565b5b600083013567ffffffffffffffff8111156128db576128da612109565b5b6128e78582860161245a565b925050602083013567ffffffffffffffff81111561290857612907612109565b5b6129148582860161245a565b9150509250929050565b600080600080600080600060e0888a03121561293d5761293c612104565b5b600061294b8a828b016121e8565b975050602088013567ffffffffffffffff81111561296c5761296b612109565b5b6129788a828b0161245a565b965050604088013567ffffffffffffffff81111561299957612998612109565b5b6129a58a828b0161245a565b955050606088013567ffffffffffffffff8111156129c6576129c5612109565b5b6129d28a828b0161245a565b94505060806129e38a828b0161221e565b93505060a088013567ffffffffffffffff811115612a0457612a03612109565b5b612a108a828b0161245a565b92505060c088013567ffffffffffffffff811115612a3157612a30612109565b5b612a3d8a828b0161245a565b91505092959891949750929550565b600082825260208201905092915050565b6000612a68826126bd565b612a728185612a4c565b9350612a828185602086016126d9565b612a8b81612113565b840191505092915050565b612a9f816121fd565b82525050565b60006080820190508181036000830152612abf8187612a5d565b9050612ace6020830186612a96565b8181036040830152612ae08185612a5d565b90508181036060830152612af48184612a5d565b905095945050505050565b600081519050919050565b600082825260208201905092915050565b6000819050602082019050919050565b6000608083016000830151612b4360008601826122eb565b506020830151612b5660208601826122dc565b506040830151612b6960408601826122eb565b5060608301518482036060860152612b81828261270c565b9150508091505092915050565b6000612b9a8383612b2b565b905092915050565b6000602082019050919050565b6000612bba82612aff565b612bc48185612b0a565b935083602082028501612bd685612b1b565b8060005b85811015612c125784840389528151612bf38582612b8e565b9450612bfe83612ba2565b925060208a01995050600181019050612bda565b50829750879550505050505092915050565b60006020820190508181036000830152612c3e8184612baf565b905092915050565b60008060408385031215612c5d57612c5c612104565b5b6000612c6b858286016121e8565b9250506020612c7c8582860161221e565b9150509250929050565b604082016000820151612c9c60008501826122dc565b506020820151612caf60208501826122eb565b50505050565b6000604082019050612cca6000830184612c86565b92915050565b600081519050919050565b600082825260208201905092915050565b6000819050602082019050919050565b600060e083016000830151612d1460008601826122eb565b5060208301518482036020860152612d2c828261270c565b91505060408301518482036040860152612d46828261270c565b91505060608301518482036060860152612d60828261270c565b9150506080830151612d7560808601826122eb565b5060a083015184820360a0860152612d8d828261270c565b91505060c083015184820360c0860152612da7828261270c565b9150508091505092915050565b6000612dc08383612cfc565b905092915050565b6000602082019050919050565b6000612de082612cd0565b612dea8185612cdb565b935083602082028501612dfc85612cec565b8060005b85811015612e385784840389528151612e198582612db4565b9450612e2483612dc8565b925060208a01995050600181019050612e00565b50829750879550505050505092915050565b60006020820190508181036000830152612e648184612dd5565b905092915050565b7f4e487b7100000000000000000000000000000000000000000000000000000000600052603260045260246000fd5b7f4e487b7100000000000000000000000000000000000000000000000000000000600052602260045260246000fd5b60006002820490506001821680612ee257607f821691505b602082108103612ef557612ef4612e9b565b5b50919050565b600081905092915050565b6000612f11826126bd565b612f1b8185612efb565b9350612f2b8185602086016126d9565b80840191505092915050565b6000612f438284612f06565b915081905092915050565b600081905092915050565b60008190508160005260206000209050919050565b60008154612f7b81612eca565b612f858186612f4e565b94506001821660008114612fa05760018114612fb157612fe4565b60ff19831686528186019350612fe4565b612fba85612f59565b60005b83811015612fdc57815481890152600182019150602081019050612fbd565b838801955050505b50505092915050565b6000612ff98284612f6e565b915081905092915050565b7f4e487b7100000000000000000000000000000000000000000000000000000000600052601160045260246000fd5b600061303e826121fd565b91507fffffffffffffffffffffffffffffffffffffffffffffffffffffffffffffffff82036130705761306f613004565b5b60018201905091905056fea2646970667358221220a4d12796afa0b745f3aff92d4ff04c7e4411578afdc92332fce9ab921f39bc4f64736f6c634300080d0033",
  "immutableReferences": {},
  "source": "pragma solidity >=0.4.22 <0.9.0;\r\n\r\ncontract IdentityManager{\r\n\r\n    address ContractOwner;\r\n\r\n    function IdentityManagement () public{\r\n        ContractOwner = msg.sender;\r\n    }\r\n\r\n    struct UserInfo{\r\n        uint id;\r\n        string Email;\r\n        string Password;\r\n        string FullName; \r\n        uint MobileNo;\r\n        string User_DOB;\r\n        string User_Address;\r\n    }\r\n\r\n    struct UserIdentity{\r\n        address userAddress; \r\n        uint id;\r\n    }\r\n\r\n    struct Group{\r\n        uint GroupID; \r\n        address OwnerAddress;\r\n        uint OwnerId;\r\n        string GroupName;\r\n        // UserIdentity [] Users; \r\n        // mapping(uint => UserIdentity) users;\r\n        // uint usercount;\r\n    }\r\n\r\n    struct GroupIdentity{\r\n        address groupAddress; \r\n        uint id;\r\n    }\r\n\r\n    mapping(address => UserInfo[]) UserMap;\r\n    mapping(address => Group[]) GroupMap;\r\n    mapping(address => mapping(uint => GroupIdentity[])) UserGroups;\r\n    mapping(address => mapping(uint => UserIdentity[])) GroupUsers; \r\n    mapping(string => UserIdentity) emailToUser; \r\n    mapping(string => GroupIdentity) nameToGroup;\r\n\r\n    address[] private userAddresses;\r\n    UserInfo[] private all_users;\r\n    Group[] private all_groups; \r\n\r\n    function AddUser (address UserAddress,string memory Email, string memory Password, string memory FullName, uint MobileNo, string memory User_DOB, string memory User_Address) public\r\n    {\r\n        uint user_id = UserMap[UserAddress].length;\r\n        UserMap[UserAddress].push(UserInfo(user_id,Email, Password, FullName, MobileNo, User_DOB, User_Address));\r\n        all_users.push(UserInfo(user_id, Email, \"\", FullName, MobileNo, User_DOB, User_Address));\r\n        emailToUser[Email] = UserIdentity(UserAddress, user_id);\r\n        bool present = false;\r\n        for (uint i = 0; i < userAddresses.length; i++){\r\n            if (userAddresses[i] == UserAddress){\r\n                present = true;\r\n                break;\r\n            }\r\n        }\r\n        if (!present){\r\n            userAddresses.push(UserAddress);\r\n        }\r\n    }\r\n\r\n    function viewUser(address userAddress, uint id) public view returns(string memory FullName, uint MobileNo, string memory User_DOB, string memory User_Address)\r\n    {\r\n        UserInfo memory ThisUser=UserMap[userAddress][id];\r\n        return (ThisUser.FullName, ThisUser.MobileNo, ThisUser.User_DOB, ThisUser.User_Address);\r\n    }\r\n\r\n    function viewUserEmail(string memory Email) public view returns(string memory FullName, uint MobileNo, string memory User_DOB, string memory User_Address)\r\n    {\r\n        return viewUser(emailToUser[Email].userAddress, emailToUser[Email].id);\r\n    }\r\n\r\n    function viewAllUsers() public view returns(UserInfo [] memory users){\r\n        return all_users;\r\n    }\r\n\r\n    function viewGroupsForUser(UserIdentity memory userID) public view returns(GroupIdentity[] memory groupForUser){\r\n        GroupIdentity [] memory uids = UserGroups[userID.userAddress][userID.id];\r\n        return uids;\r\n    }\r\n\r\n    function viewGroupsForUserEmail(string memory Email) public view returns(GroupIdentity[] memory groupForUser){\r\n        return viewGroupsForUser(emailToUser[Email]);\r\n    }\r\n\r\n    function login(string memory Email, string memory password) public view returns(bool result){\r\n        UserIdentity memory userid = emailToUser[Email];\r\n        if (keccak256(bytes(UserMap[userid.userAddress][userid.id].Password)) == keccak256(bytes(password))){\r\n            return true;\r\n        }\r\n        return false; \r\n    }\r\n\r\n    function getUserIdByEmail(string memory Email) public view returns(UserIdentity memory userId){\r\n        return emailToUser[Email];\r\n    }\r\n    // function returnGroupsForUser() public view returns()\r\n\r\n    // function editUser(address UserAddress, uint UserId, string calldata Login, string memory Password, string memory FullName,string memory EmailID,uint MobileNo, string memory User_DOB, string memory User_Address) \r\n    //         public returns(string memory Message){\r\n    //     if (msg.sender != UserAddress){\r\n    //         return \"You don't have access to modify this user\"; \r\n    //     }\r\n    //     else{\r\n    //         if (Login.length > 0)\r\n    //             UserMap[UserAddress][UserId].Login = Login;\r\n    //         UserMap[UserAddress][UserId].Password = Password;\r\n    //         UserMap[UserAddress][UserId].FullName = FullName;\r\n\r\n    //     }\r\n    // }\r\n\r\n    function AddGroup(address UserAddress, uint Owner_ID, string memory Group_Name) public{\r\n        uint GroupId = GroupMap[UserAddress].length;\r\n        GroupMap[UserAddress].push(Group(GroupId, UserAddress, Owner_ID, Group_Name));\r\n        // GroupMap[UserAddress][GroupId].Users.push(UserIdentity(UserAddress, Owner_ID));\r\n        GroupUsers[UserAddress][GroupId].push(UserIdentity(UserAddress, Owner_ID));\r\n        UserGroups[UserAddress][Owner_ID].push(GroupIdentity(UserAddress, GroupId));\r\n        all_groups.push(GroupMap[UserAddress][GroupId]);\r\n        nameToGroup[Group_Name] = GroupIdentity(UserAddress, GroupId);\r\n    }\r\n\r\n    function AddUserToGroup(string memory newUserEmail, GroupIdentity memory groupId) public returns (bool succeeded){\r\n        UserIdentity memory newUser = emailToUser[newUserEmail];\r\n        if (groupId.groupAddress != msg.sender && groupId.groupAddress != tx.origin){\r\n            return false; \r\n        } else {\r\n            // GroupMap[groupId.groupAddress][groupId.id].Users.push(newUser);\r\n            GroupUsers[groupId.groupAddress][groupId.id].push(newUser);\r\n            UserGroups[newUser.userAddress][newUser.id].push(groupId);\r\n            return true;\r\n        }\r\n    }\r\n\r\n    function viewGroup(GroupIdentity memory groupID) public view returns (Group memory group){\r\n        return GroupMap[groupID.groupAddress][groupID.id];\r\n    }\r\n\r\n    function getGroupId(string memory name) public view returns(GroupIdentity memory group){\r\n        return nameToGroup[name];\r\n    }\r\n    \r\n    function viewAllGroups() public view returns (Group[] memory allgGroups){\r\n        return all_groups;\r\n    }\r\n\r\n    function viewUsersForGroup(GroupIdentity memory groupID) public view returns(UserIdentity[] memory usersForGroup){\r\n        UserIdentity [] memory uids = GroupUsers[groupID.groupAddress][groupID.id];\r\n        return uids;\r\n    }\r\n}\r\n",
  "sourcePath": "D:\\smart contract\\modern-react-login\\src\\backend\\contracts\\IndentityManager.sol",
  "compiler": {
    "name": "solc",
    "version": "0.8.13+commit.abaa5c0e.Emscripten.clang"
  },
  "schemaVersion": "3.4.7",
  "updatedAt": "2022-05-18T02:56:16.265Z",
  "networkType": "ethereum",
  "devdoc": {
    "kind": "dev",
    "methods": {},
    "version": 1
  },
  "userdoc": {
    "kind": "user",
    "methods": {},
    "version": 1
  }
}